:1000000019C033C032C031C030C02FC02EC02DC087
:100010002CC02BC02AC029C028C027C026C025C09C
:1000200024C023C022C021C020C01FC01EC01DC0CC
:100030001CC01BC011241FBECFEFCDBFDFE3DEBF4E
:100040001FE3A0E0BFE3ECECF1E002C005900D92ED
:10005000A630B107D9F72FE3A6E0BFE301C01D9298
:10006000AC31B207E1F792D0AFC0CACFE4E0F4E020
:1000700080818460808381E08093080680910B06F4
:1000800080FFFCCFE0E0F6E081E08387A4E0B4E00D
:100090008C918B7F8C93808991890895E0E0F4E0C6
:1000A00084E08083818B9189977F918B90E29093FC
:1000B000A000E0E0F6E091E0908392839683818354
:1000C0000895E0E2F4E0808184608083E0E0F8E07D
:1000D00087E594E080879187868180648683089590
:1000E0009091040895FFFCCF8093020808950F9328
:1000F0001F93CF93DF938C018091053F90E0F0DF59
:10010000C0E0D0E007C0F801EC0FFD1F808190E057
:10011000E7DF2196C630D105B0F38091043F90E02F
:10012000DFDFDF91CF911F910F910895E0E0F4E0C0
:1001300084E0828B838B848B858B868B878BE0E23C
:10014000F4E0808B818B08952091003FFC01208397
:10015000118221E030E012C04091003F5091013FF8
:100160002417350749F4F901EE0FFF1FE80FF91FB7
:1001700048EB52E0408351832F5F3F4F4091023F55
:100180005091033F421753073CF70895CFDF99DFA3
:1001900085DF6CDF929582958F7089279F70892704
:1001A00080930C3F90930D3F8EE09FE3CDDF8EE078
:1001B0009FE39DDF24E583E298E02150804090405A
:0C01C000E1F700C000C0E5CFF894FFCFCD
:0601CC0001000200F00F2B
:00000001FF
