:1000000019C028C027C026C025C024C023C022C0D4
:1000100021C020C01FC01EC01DC01CC01BC01AC0F4
:1000200019C018C017C016C015C014C013C012C024
:1000300011C010C011241FBECFEFCDBFDFE3DEBF64
:100040002FE3A0E0BFE301C01D92A631B207E1F7A4
:1000500070D08DC0D5CFE4E0F4E0808184608083EF
:1000600081E08093080680910B0680FFFCCFE0E0E2
:10007000F6E081E08387A4E0B4E08C918B7F8C93E1
:10008000808991890895E0E0F4E084E08083818BA9
:100090009189977F918B90E29093A000E0E0F6E049
:1000A00091E090839283968381830895E0E2F4E067
:1000B000808184608083E0E0F8E087E594E08087D9
:1000C000918786818064868308959091040895FFC6
:1000D000FCCF8093020808950F931F93CF93DF9373
:1000E0008C01C0E0D0E007C0F801EC0FFD1F80815B
:1000F00090E0EBDF2196C630D105B0F3DF91CF91D0
:100100001F910F910895E0E0F4E084E0828B838BEF
:10011000848B858B868B878BE0E2F4E0808B818BF0
:10012000089522E0FC01208324E833E02483358312
:100130000895E9DFBBDFA7DF8EDF929582958F7090
:1001400089279F7089278093143F9093153F86E0FD
:100150009FE3E7DF86E09FE3BFDF24E583E298E0EB
:10016000215080409040E1F700C000C0E5CFF894F6
:02017000FFCFBF
:00000001FF
