S0100000424D535F76302E312E73726563CE
S113000019C033C032C031C030C02FC02EC02DC083
S11300102CC02BC02AC029C028C027C026C025C098
S113002024C023C022C021C020C01FC01EC01DC0C8
S11300301CC01BC011241FBECFEFCDBFDFE3DEBF4A
S11300401FE3A0E0BFE3ECECF1E002C005900D92E9
S1130050A430B107D9F72FE3A4E0BFE301C01D9298
S1130060A331B207E1F78ED0AFC0CACFE4E0F4E029
S113007080818460808381E08093080680910B06F0
S113008080FFFCCFE0E0F6E081E08387A4E0B4E009
S11300908C918B7F8C93808991890895E0E0F4E0C2
S11300A084E08083818B9189977F918B90E29093F8
S11300B0A000E0E0F6E091E0908392839683818350
S11300C00895E0E2F4E08081846080838081877F0A
S11300D08083E0E0F8E087E594E08087918786817B
S11300E08064868308959091040895FFFCCF8093E3
S11300F002080895E0E0F4E084E0828B838B848B33
S1130100858B868B878BE0E2F4E0808B818B08956E
S11301108093063F6093043F7093053F08950F93C7
S11301201F93CF93DF938C018091013FDCDFC0E00C
S1130130D0E006C0F801EC0FFD1F8081D4DF2196CA
S11301408091063F90E0C817D907A0F38091003F43
S1130150CADFDF91CF911F910F910895DC01809147
S1130160023F9FEF980F8C93E92FF0E03196EE0F4A
S1130170FF1FEA0FFB1F8091073F9091083F808388
S113018091830895B7DF9DDF89DF69E07FE386E02F
S1130190BFDF6CDF929582958F7089279F708927C6
S11301A08093073F9093083F89E09FE3D7DF89E07E
S11301B09FE3B5DF24E583E298E02150804090403E
S10F01C0E1F700C000C0E5CFF894FFCFC9
S10701CCF00F01002B
S9030000FC
